:020000040000FA
:060000000A128A11122809
:10000800FE00030E83120313B9000408BA000A089D
:10001800BB007F08BC000A128A1127280A128A111D
:100028001528F801F901FA01FB01FC0183132030BE
:10003800840036300A128A11E6250A128A118301D1
:100048000A128A11AE2C0C1F2A282B2891281F0C63
:10005800B600360C0F39003A031D332834284228DD
:100068001E08B6000310360C7C3E95001E08B6002C
:10007800B7013608FA003708FB008E281F0CB600B7
:10008800360C0F39013A031D4A284B2859281E08F7
:10009800B6000310360C7C3E9B001E08B600B70164
:1000A8003608F8003708F9008E281F0CB600360C01
:1000B8000F39023A031D612862288E281E08B600EF
:1000C8003608FC0056307C0203186B286C2871280F
:1000D8000A128A1194250A128A11AB307C0203187D
:1000E80076287728822856307C02031C7C287D28B5
:1000F80082280A128A117B250A128A11AB307C02E7
:10010800031C872888288E280A128A1162250A1259
:100118008A118E28831203130C138C1E9428952899
:10012800A32A77301A06031D9A289B28D22806305E
:1001380083120313B8001330B700AD30B600B60B06
:10014800A328B70BA328B80BA328FB30F1008330F2
:10015800F2000A128A111A250A128A11831203134D
:10016800081409148910A230F1008330F2000A1231
:100178008A111A250A128A112330F1008330F200FD
:100188000A128A111A250A128A114530F1008330A1
:10019800F2000A128A111A250A128A117330831280
:1001A80003131A06031DD928DA2801290810091093
:1001B8008914D130F1008330F2000A128A111A250D
:1001C8000A128A110030F1008330F2000A128A11F3
:1001D8001A250A128A112330F1008330F2000A121C
:1001E8008A111A250A128A114530F1008330F2006B
:1001F8000A128A111A250A128A116130831203130E
:100208001A06031D0829092941290A128A11942569
:100218000A128A11BB30F1008330F2000A128A11E7
:100228001A250A128A11023083120313B800043007
:10023800B700B930B600B60B1F29B70B1F29B80B8A
:100248001F2926298530F1008330F2000A128A110D
:100258001A250A128A112330F1008330F2000A129B
:100268008A111A250A128A114530F1008330F200EA
:100278000A128A111A250A128A116430831203138A
:100288001A06031D4829492981290A128A1162255B
:100298000A128A11E730F1008330F2000A128A113B
:1002A8001A250A128A11023083120313B800043087
:1002B800B700B930B600B60B5F29B70B5F29B80B8A
:1002C8005F2966298530F1008330F2000A128A110D
:1002D8001A250A128A112330F1008330F2000A121B
:1002E8008A111A250A128A114530F1008330F2006A
:1002F8000A128A111A250A128A11713083120313FD
:100308001A06031D88298929F8297C08B600B7012F
:100318003608F0003708F1001730F2000030F3001B
:100328000A128A1140250A128A117B08F1007A08FC
:10033800F0001830F2000030F3000A128A1140254C
:100348000A128A117908F1007808F0001930F200D1
:100358000030F3000A128A1140250A128A1183120A
:1003680003133508F1003408F0002030F2000030A3
:10037800F3000A128A1140250A128A118312031304
:100388003308F1003208F0002130F2000030F300A9
:100398000A128A1140250A128A118312031331089E
:1003A800F1003008F0002230F2000030F3000A12A9
:1003B8008A1140250A128A111F3083120313B800CC
:1003C8007130B7001D30B600B60BE829B70BE82925
:1003D800B80BE829EF290E30F1008430F2000A1238
:1003E8008A111A250A128A116530831203131A0614
:1003F800031DFF29002AA32A1730F0000030F1005E
:100408000A128A11AD250A128A1183120313B60043
:10041800B7013608AE003708AF001830F0000030DA
:10042800F1000A128A11AD250A128A1183120313E8
:10043800B600B7013608AC003708AD001930F00037
:100448000030F1000A128A11AD250A128A118312AE
:100458000313B600B7013608AA003708AB002030EE
:10046800F0000030F1000A128A11AD250A128A1133
:1004780083120313B600B7013608A8003708A9008D
:100488002130F0000030F1000A128A11AD250A125D
:100498008A1183120313B600B7013608A60037087D
:1004A800A7002230F0000030F1000A128A11AD25B1
:1004B8000A128A1183120313B600B7013608A40082
:1004C8003708A5001F3083120313B8007130B70036
:1004D8001D30B600B60B6E2AB70B6E2AB80B6E2A03
:1004E800752A1B30F1008430F2000A128A111A258D
:1004F8000A128A11831203132D08B7002C08B600BC
:10050800370DB70CB60C36087C3E95002B08B700A3
:100518002A08B600370DB70CB60C36087C3E9B008F
:10052800280C031C091003180914260C031C891035
:1005380003188914240C031C0810031808140B1C36
:10054800A62AA72AE72A0618AA2AAB2AC72A08141D
:100558000914891009080139B600B7013608B40032
:100568003708B500090C0139B600B7013608B200E2
:100578003708B30008080139B600B7013608B000DB
:100588003708B100E62A8618CA2ACB2AE62A0810B4
:100598000910891409080139B600B7013608B400F2
:1005A8003708B500090C0139B600B7013608B200A2
:1005B8003708B30008080139B600B7013608B0009B
:1005C8003708B1000B103C08FF003B088A003A08C6
:0C05D8008400390E8300FE0E7E0E090028
:100600000D342034413470346134633468346534DB
:1006100020347734203470346134723461342034BF
:100620007034723465346E3464346534723420341A
:1006300065346C3420346D346F3474346F347234F8
:1006400020340D3400340D3420344134703461349E
:100650006334683465342034613420347034613458
:1006600072346134203467346934723461347234E2
:10067000203469347A3471347534693465347234B1
:100680006434613420340D3400340D34203441346A
:100690007034613463346834653420346434203415
:1006A00070346134723461342034673469347234A4
:1006B00061347234203464346534723465346334A4
:1006C0006834613420340D3400340D342034413426
:1006D00070346134633468346534203477342034C2
:1006E000703461347234613420347034723465345F
:1006F0006E3464346534723420346D346F34743441
:100700006F34723420340D3400340D3420344134CD
:100710007034613463346834653420347334203485
:100720006134703461346734613472342034653438
:100730006C3420346D346F3474346F34723420343C
:100740000D3400340D34203441347034613463345A
:100750006834653420347334203470346134723436
:1007600061342034613470346134673461347234FC
:1007700020340D3400340D3420344734693472345D
:1007800061346E3464346F34203469347A347134B3
:1007900075346934653472346434613420340D3412
:1007A00000340D34203453346534203461347034D3
:1007B000613467346F34203465346C3420346D34E4
:1007C0006F3474346F34723420340D3400340D348B
:1007D000203447346934723461346E3464346F3495
:1007E000203464346534723465346334683461347D
:1007F00020340D3400340D342034433461347234E9
:1008000072346F3420347034723465346E3464342E
:10081000693464346F3420340D3400340D342034A2
:10082000473472346134623461346E3464346F340A
:1008300020340D3400340D342034433461347234A8
:10084000673461346E3464346F3420340D340034D2
:10085000831603130F178F160F160F140730831606
:1008600003178800890107308316031385000614D7
:10087000861486150616861687100711871107132A
:100880008717081088100910891083120313850137
:1008900086018701880189018316031381130330C0
:1008A0009500161496149F131F129F1283120313A0
:1008B0001F083F3980389F001F14C3309F05203028
:1008C00083120313BD00BD0B632C000083160313BA
:1008D00007158714F93092003F30831203139705F0
:1008E0001708F0390C3897000F3095001D08F039C3
:1008F0000C389D000F309B00CF3097051D129D12C4
:100900008C100330920412158C1C872C882C842C9C
:100910008C1083160313071187108B170B170C17F6
:10092000831203130C130B148B1583160313181265
:100930001815831603178715D230831603139900F1
:100940009A018312031398171813181683160313AA
:100950009816831203138C120C1208000A128A11C3
:1009600028240A128A11831203139F1489146530F4
:10097000BE008330BF000A128A11F2240A128A11C3
:10098000831203139F18C52CC62CC02C1F0CC50046
:10099000450C0F39003A031DCE2CCF2CD42C1F0848
:1009A000C33904389F00E42C1F0CC500450C0F39D7
:1009B000013A031DDC2CDD2CE22C1F08C33908385A
:1009C0009F00E42CC3309F05203083120313C50021
:1009D000C50BE82C0000831203139F14C02C0A12CD
:1009E0008A111228403083120313C0004008C3004C
:1009F000FF2C44080A128A11D2250A128A11831286
:100A000003133F08C1003E08C000BE0A0319BF0A15
:100A10004108FF00400884000A128A11C0250A120A
:100A20008A11C2004208C4004408031D182D192D64
:100A3000F92C08007330F3007308F600252D7708B1
:100A40000A128A11DC250A128A117208F400710850
:100A5000F300F10A0319F20A740883120313FF006A
:100A6000730884000A128A11C0250A128A11F5003F
:100A70007508F7007708031D3E2D3F2D1F2D080038
:100A80007208831203178D0070088C008B13831675
:100A900003178C130C1555308D000C1555308D0037
:100AA0000C1555308D00AA308D008C148312031361
:100AB0000D1E5B2D5C2D562D0D12831603170C1188
:100AC0008B1708008312031387150630F1003030AE
:100AD000F000F00B692DF10B692D00008312031358
:100AE00087112F30F100BF30F000F00B752DF10BA6
:100AF000752D7A2D08008312031387150430F10039
:100B0000E430F000F00B822DF10B822D00008312F7
:100B1000031387113130F1000B30F000F00B8E2DF4
:100B2000F10B8E2D932D08008312031387150330CC
:100B3000F1009730F000F00B9B2DF10B9B2DA02DB9
:100B40008312031387113230F1005830F000F00B9C
:100B5000A72DF10BA72D00000800700883120317C2
:100B60008D00831603178C130C14831203170C08C3
:100B7000F200F3017208F4007308F500740808002D
:100B8000FF1BCA2D83137F1883170008840A0319DB
:100B9000FF0A08007F087F398A000408840A0319C5
:100BA000FF0A820083120313BD000C1ED82DD92D1D
:100BB000D52D3D0899000800F000831203130C1E88
:100BC000E22DE32DDD2D70089900080064008001FE
:0C0BD000840A0406031900340406E72D13
:04400E00D438FF3F64
:00000001FF
